:100000000C9462000C948A000C948A000C948A0070
:100010000C948A000C948A000C948A000C94F603C9
:100020000C948A000C948A000C948A000C948A0028
:100030000C948A000C948A000C948A000C948A0018
:100040000C9454030C948A000C94C4030C949E03E7
:100050000C948A000C948A000C948A000C948A00F8
:100060000C948A000C948A00000000080002010031
:100070000003040700000000000000000000000072
:10008000240027002A000000000023002600290089
:1000900000000000250028002B00040404040404D0
:1000A0000404020202020202030303030303010227
:1000B00004081020408001020408102001020408F6
:1000C00010201F0411241FBECFEFD8E0DEBFCDBF2C
:1000D00011E0A0E0B1E0EAE6F2E102C005900D9285
:1000E000A232B107D9F721E0A2E2B1E001C01D922E
:1000F000A63EB207E1F710E0C2E6D0E004C02197C7
:10010000FE010E945E07C136D107C9F70E948C0428
:100110000C9433090C940000833081F028F4813072
:1001200099F08230A1F008958730A9F08830B9F0B5
:100130008430D1F4809180008F7D03C08091800055
:100140008F7780938000089584B58F7702C084B53F
:100150008F7D84BD08958091B0008F7703C080911A
:10016000B0008F7D8093B0000895CF93DF93282F48
:1001700030E0F901E859FF4F8491F901E255FF4F52
:10018000D491F901E656FF4FC491CC2391F081112F
:100190000E948C00EC2FF0E0EE0FFF1FEA57FF4F9C
:1001A000A591B491EC91ED2381E090E021F480E001
:1001B00002C080E090E0DF91CF9108951F93CF932C
:1001C000DF93282F30E0F901E859FF4F8491F901BE
:1001D000E255FF4FD491F901E656FF4FC491CC236D
:1001E000C9F0162F81110E948C00EC2FF0E0EE0F69
:1001F000FF1FE057FF4FA591B4918FB7F8941111ED
:1002000005C09C91ED2FE095E92302C0EC91ED2B08
:10021000EC938FBFDF91CF911F910895CF93DF9320
:1002200090E0FC01E255FF4F2491FC01E656FF4FA0
:100230008491882361F190E0880F991FFC01E458B4
:10024000FF4FC591D491FC01E057FF4FA591B491A8
:10025000611109C09FB7F894888120958223888313
:10026000EC912E230BC0623061F49FB7F894388173
:10027000822F809583238883EC912E2B2C939FBF14
:1002800006C08FB7F894E8812E2B28838FBFDF91AB
:10029000CF9108951F93CF93DF93182FEB0161E067
:1002A0000E940E01209711F460E004C0CF3FD105F9
:1002B00039F461E0812FDF91CF911F910C94DE0022
:1002C000E12FF0E0E859FF4FE491E330F9F048F412
:1002D000E130B9F0E230A1F584B5806284BDC8BDDB
:1002E00034C0E730E9F0E83019F1E43049F58091A5
:1002F0008000806280938000D0938B00C0938A003E
:1003000024C084B5806884BDC7BD1FC080918000B3
:10031000806880938000D0938900C093880015C0C6
:100320008091B00080688093B000C093B3000DC08E
:100330008091B00080628093B000C093B40005C08B
:10034000C038D1050CF0B5CFAFCFDF91CF911F9161
:1003500008953FB7F8948091330190913401A091B2
:100360003501B091360126B5A89B05C02F3F19F085
:100370000196A11DB11D3FBFBA2FA92F982F882725
:10038000820F911DA11DB11DBC01CD0142E0660F80
:10039000771F881F991F4A95D1F708958F929F92D2
:1003A000AF92BF92CF92DF92EF92FF926B017C01EE
:1003B0000E94A9014B015C01C114D104E104F104C4
:1003C000F1F00E94A901DC01CB0188199909AA0961
:1003D000BB09883E9340A105B10570F321E0C21A24
:1003E000D108E108F10888EE880E83E0981EA11C70
:1003F000B11CC114D104E104F10419F7DDCFFF9061
:10040000EF90DF90CF90BF90AF909F908F90089526
:10041000CF92DF92EF92FF920F931F93CF93DF93D0
:100420006C017A018B01C0E0D0E0CE15DF0589F0C8
:10043000D8016D918D01D601ED91FC910190F08173
:10044000E02DC6010995892B11F47E0102C0219689
:10045000ECCFC701DF91CF911F910F91FF90EF90EB
:10046000DF90CF900895FC01918D828D981761F0F7
:10047000828DDF01A80FB11D5D968C91928D9F5FDB
:100480009F73928F90E008958FEF9FEF0895FC0186
:10049000918D828D981731F0828DE80FF11D858D39
:1004A00090E008958FEF9FEF0895FC01918D228DCC
:1004B000892F90E0805C9F4F821B91098F73992751
:1004C000089587E391E00E94550221E0892B09F409
:1004D00020E0822F0895FC01848DDF01A80FB11D5B
:1004E000A35ABF4F2C91848D90E001968F7399276A
:1004F000848FA689B7892C93A089B1898C91806457
:100500008C93938D848D981306C00288F389E02D17
:1005100080818F7D80830895EF92FF920F931F93C8
:10052000CF93DF93EC0181E0888F9B8D8C8D9813A6
:1005300005C0E889F989808185FD24C0F62E0B8DE0
:1005400010E00F5F1F4F0F731127E02E8C8DE81204
:100550000CC00FB607FCFACFE889F989808185FFC6
:10056000F5CFCE010E946B02F1CF8B8DFE01E80F1B
:10057000F11DE35AFF4FF0820B8FEA89FB898081DE
:10058000806207C0EE89FF896083E889F9898081EC
:100590008064808381E090E0DF91CF911F910F9183
:1005A000FF90EF900895CF93DF93EC01888D88231F
:1005B000C9F0EA89FB89808185FD05C0A889B989D0
:1005C0008C9186FD0FC00FB607FCF5CF808185FFAB
:1005D000F2CFA889B9898C9185FFEDCFCE010E9419
:1005E0006B02E7CFDF91CF91089580E090E0892BF7
:1005F00029F00E94610281110C9400000895009777
:1006000069F0FC0101900020E9F73197AF01481B28
:10061000590BBC0187E391E00C94080280E090E064
:1006200008958F929F92AF92BF920F931F93CF9393
:10063000DF93CDB7DEB7A1970FB6F894DEBF0FBE3C
:10064000CDBF19A2423008F44AE08E010F5D1F4F62
:10065000842E912CA12CB12CA50194010E943C0761
:10066000E62FB901CA0101501109EA3014F4E05D26
:1006700001C0E95CD801EC93232B242B252B61F7D7
:10068000C8010E94FF02A1960FB6F894DEBF0FBE0C
:10069000CDBFDF91CF911F910F91BF90AF909F90F1
:1006A0008F9008950E942E091F920F920FB60F92FD
:1006B00011242F933F938F939F93AF93BF93809178
:1006C0002F0190913001A0913101B0913201309110
:1006D0002E0123E0230F2D3720F40196A11DB11D1B
:1006E00005C026E8230F0296A11DB11D20932E01FF
:1006F00080932F0190933001A0933101B093320188
:100700008091330190913401A0913501B09136016F
:100710000196A11DB11D8093330190933401A093E4
:100720003501B0933601BF91AF919F918F913F9169
:100730002F910F900FBE0F901F9018951F920F9240
:100740000FB60F9211242F933F934F935F936F93A4
:100750007F938F939F93AF93BF93EF93FF9387E321
:1007600091E00E946B02FF91EF91BF91AF919F9139
:100770008F917F916F915F914F913F912F910F904A
:100780000FBE0F901F9018951F920F920FB60F92E9
:1007900011242F938F939F93EF93FF93E091470141
:1007A000F09148018081E0914D01F0914E0182FD70
:1007B00012C09081809150018F5F8F732091510101
:1007C000821751F0E0915001F0E0E95CFE4F958F07
:1007D0008093500101C08081FF91EF919F918F9193
:1007E0002F910F900FBE0F901F9018951F920F9290
:1007F0000FB60F9211242F933F934F935F936F93F4
:100800007F938F939F93AF93BF93EF93FF93E09169
:100810002601F0912701309709F00995FF91EF919A
:10082000BF91AF919F918F917F916F915F914F9108
:100830003F912F910F900FBE0F901F901895E7E3F7
:10084000F1E01382128288EE93E0A0E0B0E08483AE
:100850009583A683B78384E091E09183808385ECC0
:1008600090E09587848784EC90E09787868780EC7A
:1008700090E0918B808B81EC90E0938B828B82EC6B
:1008800090E0958B848B86EC90E0978B868B118E15
:10089000128E138E148EEAEBF0E0E491A4EDB1E039
:1008A0001496EC931497E1EBF0E0E4911596EC9339
:1008B000159786EA90E0FC012491E22FF0E0EE0F1C
:1008C000FF1FE057FF4F2591349117963C932E93CD
:1008D0001697EDE9F0E0E491F0E0EE0FFF1FEA5724
:1008E000FF4F259134911B963C932E931A97FC0150
:1008F0008491E82FF0E0EE0FFF1FE458FF4F859141
:10090000949119969C938E93189780E696E11D9684
:100910009C938E931C970895789484B5826084BDCF
:1009200084B5816084BD85B5826085BD85B58160F3
:1009300085BD80916E00816080936E001092810071
:10094000809181008260809381008091810081602C
:1009500080938100809180008160809380008091ED
:10096000B10084608093B1008091B0008160809379
:10097000B00080917A00846080937A0080917A0040
:10098000826080937A0080917A00816080937A00FF
:1009900080917A00806880937A001092C100E09183
:1009A0004701F091480182E08083E0914301F0919A
:1009B00044011082E0914501F09146018FEC808363
:1009C00010924F01E0914B01F0914C0186E0808341
:1009D000E0914901F0914A01808180618083E0913A
:1009E0004901F0914A01808188608083E09149014A
:1009F000F0914A01808180688083E0914901F09103
:100A00004A0180818F7D808361E088E00E940E0131
:100A100061E089E00E940E0161E08AE00E940E011F
:100A200061E08BE00E940E0160E085E00E940E0113
:100A300060E086E00E940E0160E087E00E940E0107
:100A40008BE0282E312C93E2892E912CC9E3D0E043
:100A500085E00E94B5005C0186E00E94B50087E059
:100A60000E94B5008C016AE070E080E090E00E9496
:100A7000CE01E091DC01F091DD0190818091D801FF
:100A8000892B8083E091DA01F091DB0190818091E4
:100A9000D801809589238083C1010197F1F7E09106
:100AA000DA01F091DB0190818091D801892B80835C
:100AB000C4010197F1F7E091DA01F091DB01908137
:100AC0008091D801809589238083E091DC01F091A9
:100AD000DD0190818091D8018095892380830E94D7
:100AE000A901DC01CB01805B994BAF4FBF4F8093D5
:100AF000E2019093E301A093E401B093E501E0915A
:100B0000DE01F091DF0190818091D901892379F094
:100B10000E94A901C090E201D090E301E090E401BD
:100B2000F090E501C616D706E806F90640F7E09111
:100B3000DE01F091DF0190818091D901892391F448
:100B40000E94A901C090E201D090E301E090E4018D
:100B5000F090E501C616D706E806F90640F760E012
:100B600070E041C00E94A9012091E0013091E101B3
:100B7000DC01CB01820F931FA11DB11D8093E20107
:100B80009093E301A093E401B093E501E091DE01CD
:100B9000F091DF0190818091D9018923A1F00E9419
:100BA000A901C090E201D090E301E090E401F0904F
:100BB000E501C616D706E806F90640F760E070E0E2
:100BC00020E030E018C00E94A9012091E00130919E
:100BD000E101255031094091E2015091E301241BCC
:100BE000350B620F731F91E080E06115710509F408
:100BF00090E0292F382FCB014C96BE010E94280788
:100C00006217730708F4B90180E090E00E940508BC
:100C10006B017C0160932A0170932B0180932C015E
:100C200090932D019B01AC010E942909882319F0A2
:100C300080E191E01AC026013701E89477F82FEFA0
:100C40003FEF4FE75FE7C301B2010E94290981111D
:100C50000FC02FEF3FEF4FE75FE7C301B2010E94E4
:100C6000D10718162CF484E191E00E94FF0263C0C2
:100C70002FEF3FEF4FE75FE4C701B6010E94B708CF
:100C800018161CF488E191E0F0CF2FEF3FEF4FE70B
:100C90005FECC701B6010E94D10787FDF3CF2AE0C0
:100CA00037ED43EA5BE3C701B6010E9465072B01FC
:100CB0003C010E94D6076B017C010E9405089B0144
:100CC000AC01C301B2010E9464072B013C014AE060
:100CD000C701B6010E9411038CE191E00E94FF025E
:100CE00020E030E040E251E4C301B2010E94BC08C0
:100CF0006B017C010E94D6072B01612C712C4AE00C
:100D0000C301B2010E941103C301B2010E94050890
:100D10009B01AC01C701B6010E94640720E030E0EE
:100D200040E251E40E94BC080E94D60780E090E0B7
:100D30004AE00E9411038EE191E00E94FF02AA9412
:100D4000AB2819F00130110549F4809128019091E8
:100D5000290101969093290180932801009128018F
:100D6000109129010115110511F520E030E040E74F
:100D700051E460912A0170912B0180912C01909196
:100D80002D010E94B708181694F461E088E00E94D3
:100D9000DE0061E08BE00E94DE0068E770E089E041
:100DA0000E944A0168E770E08AE00E944A01C09010
:100DB0002A01D0902B01E0902C01F0902D0120E031
:100DC00030E040E751E4C701B6010E94D10787FF38
:100DD0001FC020E030E0A901C701B6010E94B7089A
:100DE0001816B4F40115110599F461E088E00E9429
:100DF000DE006AEF70E089E00E944A016AEF70E06D
:100E00008AE00E944A0161E08BE00E94DE0019C086
:100E100010161106B4F460E088E00E94DE0061E084
:100E20008BE00E94DE0061E089E00E94DE0061E06C
:100E30008AE00E94DE006CE271E080E090E00E94B7
:100E4000CE0110922901109228010E94F50200CED5
:100E5000AA1BBB1B51E107C0AA1FBB1FA617B707E0
:100E600010F0A61BB70B881F991F5A95A9F78095FC
:100E70009095BC01CD010895A1E21A2EAA1BBB1BBF
:100E8000FD010DC0AA1FBB1FEE1FFF1FA217B30756
:100E9000E407F50720F0A21BB30BE40BF50B661F6C
:100EA000771F881F991F1A9469F760957095809530
:100EB00090959B01AC01BD01CF010895EE0FFF1F7E
:100EC0000590F491E02D09945058BB27AA270E9461
:100ED0007C070C947D080E946F0838F00E94760809
:100EE00020F039F49F3F19F426F40C946C080EF4AA
:100EF000E095E7FB0C946608E92F0E948E0858F3F2
:100F0000BA17620773078407950720F079F4A6F5EE
:100F10000C94B0080EF4E0950B2EBA2FA02D0B0107
:100F2000B90190010C01CA01A0011124FF27591B2E
:100F300099F0593F50F4503E68F11A16F040A22F34
:100F4000232F342F4427585FF3CF469537952795A5
:100F5000A795F0405395C9F77EF41F16BA0B620BA4
:100F6000730B840BBAF09150A1F0FF0FBB1F661FEB
:100F7000771F881FC2F70EC0BA0F621F731F841F2E
:100F800048F4879577956795B795F7959E3F08F054
:100F9000B0CF9395880F08F09927EE0F9795879516
:100FA00008950E94420808F481E008950E9496087E
:100FB00088F09F5798F0B92F9927B751B0F0E1F01A
:100FC000660F771F881F991F1AF0BA95C9F714C0CA
:100FD000B13091F00E94B008B1E008950C94B008CF
:100FE000672F782F8827B85F39F0B93FCCF3869503
:100FF00077956795B395D9F73EF490958095709560
:1010000061957F4F8F4F9F4F0895E89409C097FBDC
:101010003EF490958095709561957F4F8F4F9F4FCF
:101020009923A9F0F92F96E9BB279395F695879513
:1010300077956795B795F111F8CFFAF4BB0F11F4D6
:1010400060FF1BC06F5F7F4F8F4F9F4F16C088237D
:1010500011F096E911C0772321F09EE8872F762FB3
:1010600005C0662371F096E8862F70E060E02AF0F4
:101070009A95660F771F881FDAF7880F96958795E0
:1010800097F90895990F0008550FAA0BE0E8FEEFB5
:1010900016161706E807F907C0F012161306E4073C
:1010A000F50798F0621B730B840B950B39F40A2635
:1010B00061F0232B242B252B21F408950A2609F413
:1010C000A140A6958FEF811D811D089597F99F6717
:1010D00080E870E060E008959FEF80EC08950024C0
:1010E0000A941616170618060906089500240A948D
:1010F00012161306140605060895092E0394000C13
:1011000011F4882352F0BB0F40F4BF2B11F460FFA1
:1011100004C06F5F7F4F8F4F9F4F089557FD9058CA
:10112000440F551F59F05F3F71F04795880F97FBAB
:10113000991F61F09F3F79F0879508951216130665
:101140001406551FF2CF4695F1DF08C01616170694
:101150001806991FF1CF86957105610508940895C9
:10116000E894BB2766277727CB0197F908950E945B
:10117000420808F48FEF08950E94CF080C947D0870
:101180000E946F0838F00E94760820F0952311F035
:101190000C9466080C946C0811240C94B1080E94FD
:1011A0008E0870F3959FC1F3950F50E0551F629F15
:1011B000F001729FBB27F00DB11D639FAA27F00DB0
:1011C000B11DAA1F649F6627B00DA11D661F829FD7
:1011D0002227B00DA11D621F739FB00DA11D621FBC
:1011E000839FA00D611D221F749F3327A00D611DD9
:1011F000231F849F600D211D822F762F6A2F1124BB
:101200009F5750409AF0F1F088234AF0EE0FFF1FED
:10121000BB1F661F771F881F91505040A9F79E3F44
:10122000510580F00C9466080C94B1085F3FE4F31C
:10123000983ED4F3869577956795B795F795E7959A
:101240009F5FC1F7FE2B880F911D9695879597F9A3
:1012500008950E944208880B990B089581E090E060
:0A126000F8940C943309F894FFCFC2
:10126A00000000008C020802550233024702D30232
:10127A006E616E00696E66006F7666002E000D0A5A
:02128A00000062
:00000001FF
